:020000040800F2
:100000000020002065010008710A0008750A000838
:1000100000000000000000000000000000000000E0
:10002000000000000000000000000000790A000845
:1000300000000000000000007D0A0008810A00089E
:10004000A9010008A9010008A9010008A9010008E8
:10005000A9010008A9010008A9010008710500080C
:10006000A9010008A9010008A9010008A9010008C8
:10007000A9010008A9010008A9010008A9010008B8
:10008000A10E0008A901000800000000310F0008BF
:10009000A9010008990F000851100008A9010008E3
:1000A000A9010008A9010008A90100088911000898
:1000B000A901000800000000A901000800000000DC
:0400C0005FF808F1EC
:1000C400002934D00123002210B488422CD3012407
:1000D4002407A14204D2814202D209011B01F8E79C
:1000E400E400A14204D2814202D249005B00F8E755
:1000F400884201D3401A1A434C08A04202D3001B81
:100104005C0822438C08A04202D3001B9C082243B3
:10011400CC08A04202D3001BDC082243002803D0F1
:100124001B0901D00909E3E7101C10BC7047002823
:1001340001D00020C04307B4024802A14018029035
:1001440003BDC046190000000029F0D003B5FFF735
:10015400B9FF0EBC4243891A1847C0467047C046CF
:10016400002103E00A4B5B584350043109480A4B11
:1001740042189A42F6D3094A02E00023136004327B
:10018400074B9A42F9D300F055FB00F0A9F87047E9
:10019400F8640008000000206C0000206C000020BF
:1001A40020040020FEE7000030B583B0021C00915B
:1001B4006B4607331A706B4607331B787F2B36D98F
:1001C40033496B4607331B781A1C0F231340083B33
:1001D40098082F4A6B4607331B781C1C0F232340B7
:1001E400083B9B0806339B00D3185B686A460732BA
:1001F4001278141C03222240D200FF24251C9540AF
:100204002A1CD2431A40009B9C01FF231C406B46CE
:1002140007331B781D1C03232B40DB00251C9D404A
:100224002B1C1A43831D9B00CB185A602DE0194BDD
:100234006A460732127852B2920816496846073065
:10024400007840B28008C0308000415868460730CA
:100254000078041C03202040C000FF24251C854096
:10026400281CC043084000998C01FF210C406946BA
:10027400073109780D1C03212940C900251C8D4034
:10028400291C0143C0329200D15003B030BDC04696
:1002940000ED00E000E100E000B583B00190019AB8
:1002A4000D4B9A4201D9012312E00C4B019A120220
:1002B400120A013A5A6001235B42181C0321FFF71A
:1002C40073FF064B00229A60044B07221A60002336
:1002D400181C03B000BDC046FFFFFF0010E000E0A3
:1002E40010B588B007AB00221A706B461E3300228B
:1002F4001A706B461A3300221A806B461933002297
:100304001A7006AB00221A706B46173300221A705B
:100314006B461D330D221A7000F042FC8A4B181CE8
:10032400FFF7BAFF031C002B23D0884B9B8A9BB298
:100334001A1C8023134004D0844B802212049A6137
:1003440002E0824B80229A616B461F3300221A70AE
:1003540009E0C046C046C0466B461F336A461F329A
:10036400127801321A706B461F331B78FF2BF0D1C1
:10037400DBE700F0A1FD00F0E7FD00F01DFE00F05A
:10038400C7FC724B80229A61FA239B00181C00F070
:1003940071FD6E4B802212049A6101F015F86B4BCB
:1003A40080229A61002001F095F8FA235B00181C62
:1003B40000F060FD052001F08DF8FA235B00181CA5
:1003C40000F058FD072001F085F8322000F052FDBE
:1003D4009023DB0580229A61C0465D4A5D4B101C68
:1003E400191C0222022301F01FFD031C0A2BF4D165
:1003F400564B802212049A61574B00221A70574BB5
:1004040001221A80564B04221A7000F09FFF00F05C
:100414007FFC544B1B78FF2B04D16B461E33002208
:100424001A7003E06B461D330B221A706B461E33A1
:100434001B780D2B00D978E09A004B4BD3181B681E
:100444009F466C46173401F0E1FB031C23706B4696
:1004540017331B781E2B03D16B461E330A221A70E6
:100464006B4617331B78202B03D16B461E330B22AC
:100474001A706B4617331B78222B03D16B461E333D
:100484000C221A706B461D330C221A7057E06C460E
:10049400173402F0D5F9031C23706B4617331B780D
:1004A400032B47D103F09AFA6B461E3300221A70CD
:1004B40040E06C46173403F0A3FA031C23706B4628
:1004C40017331B78032B37D104F002FD6B461E3320
:1004D40000221A7030E06C4617346B461D331B78CB
:1004E400181C04F001FD031C23706B461D330D2200
:1004F4001A706B461E336A461E32127801321A7025
:100504001DE06C4617346B461D331B78181C04F031
:10051400EBFC031C23706B4617331B78032B0DD1A4
:100524006B461E3300221A7008E06B461E3300220D
:100534001A7004E0C04602E0C04600E0C04601F084
:100544005DFA01F0C9FA71E780BB000000040048BD
:10055400D85B0008EC5B00086E030020000000205C
:1005640002000020B00000209861000882B04E4BC9
:100574005A6980235B00134000D193E04B4B1B78F6
:10058400DBB2002B05D04A4B1B78DBB2002B00D02A
:1005940081E0484B1B78DBB2012B21D0022B58D0D1
:1005A400002B00D072E09023DB051B8A9BB21A1C3F
:1005B40080235B00134000D06CE03F4B00225A6262
:1005C4003D4B3D4A128892B201210A4392B21A80ED
:1005D400384B1B78DBB20133DAB2364B1A7059E070
:1005E4009023DB051B8A9BB21A1C80235B001340FB
:1005F40023D0314B5A6A6B4606331A806B46063356
:100604001B88572B15D96B4606331B88D12B10D862
:100614002A4B80229A61274B1B78DBB20133DAB272
:10062400244B1A70264B00221A80214B14221A7074
:1006340006E0204B00221A7002E01E4B00221A70C2
:100644001D4B1D4A128892B201218A4392B21A802C
:1006540021E09023DB051B8A9BB21A1C80235B00DC
:10066400134008D1124B1B78DBB2002B03D00F4B85
:1006740001221A7002E00D4B00221A700D4B002269
:100684001A700E4B802212049A6104E0094B002276
:100694001A7000E0C046044B034A526980214900A5
:1006A4000A435A6102B07047000401406E00002002
:1006B4007C0000207B000020002000400004004853
:1006C400700000204E4B1B889BB2002B06D04C4B75
:1006D4001B889BB2013B9AB2494B1A80494B1B8839
:1006E4009BB2002B06D0474B1B889BB2013B9AB2AE
:1006F400444B1A80444B1B78DBB2002B06D0424B90
:100704001B78DBB2013BDAB23F4B1A703F4B1B78CC
:10071400DBB2002B06D03D4B1B78DBB2013BDAB2D7
:100724003A4B1A703A4B1B78DBB2002B06D0384B8D
:100734001B78DBB2013BDAB2354B1A70354B1B78B0
:10074400DBB2002B06D0334B1B78DBB2013BDAB2B1
:10075400304B1A70304B1B78DBB2002B06D02E4B7B
:100764001B78DBB2013BDAB22B4B1A702B4B1B7894
:10077400DBB2002B06D0294B1B78DBB2013BDAB28B
:10078400264B1A70264B1B889BB2002B06D0244B99
:100794001B889BB2013B9AB2214B1A80214B1B88C8
:1007A4009BB2002B06D01F4B1B889BB2013B9AB215
:1007B4001C4B1A801C4B1B889BB2002B06D01A4B77
:1007C4001B889BB2013B9AB2174B1A80174B1B88AC
:1007D4009BB2002B06D0154B1B889BB2013B9AB2EF
:1007E400124B1A80124B1B889BB2002B06D0104B65
:1007F4001B889BB2013B9AB20D4B1A807047C046CE
:100804006C000020A6030020740000207500002066
:100814007C000020A00300207A000020A403002014
:100824007200002076000020780000202E030020B3
:100834009E03002008B51B4B1A4A126801210A4383
:100844001A60184B174A5168174A0A405A60154BE8
:10085400144A1168154A0A401A60124B114A116869
:10086400134A0A401A600F4B0E4A5168114A0A4053
:100874005A600C4B0B4AD26A0F218A43DA62094B45
:10088400084A116B0C4A0A401A63064B054A526B1C
:1008940001218A435A63034B00229A6000F00EF848
:1008A40008BDC046001002400CB8FFF8FFFFF6FE7A
:1008B400FFFFFBFFFFFFC0FFACFEFFFF254B254AF8
:1008C400126801210A431A60C046224B1A680223A7
:1008D4001340FAD0204B11221A601E4B1D4A526855
:1008E4005A601C4B1B4A52685A601A4B194A516889
:1008F4001A4A0A405A60174B164A5168184A0A4065
:100904005A60144B134A5268A02189030A435A605F
:10091400104B104A1268802149040A431A60C046E9
:100924000C4B1A6880239B041340F9D0094B094AE5
:10093400526803218A435A60064B064A52680221D0
:100944000A435A60C046034B5A680C231340082BD1
:10095400F9D170470010024000200240FFFFFEFF63
:10096400FFFFC3FF84B00190094B1B68002B02D129
:10097400074B084A1A60064B1B680393044B1A681A
:10098400019BD218024B1A60039B181C04B07047D9
:10099400800000202004002084B0019000230393F1
:1009A400314B0393019B9B79002B4DD02E4B2E4A48
:1009B4001168019A1268D2430A401A602A4B2A4AE3
:1009C4005168019A1268D2430A405A60019B1B790C
:1009D400039AD3180393039B039A1168019A12682C
:1009E4000A431A60204B204A9168019A1268D24344
:1009F4000A409A601C4B1C4AD168019A1268D2437F
:100A04000A40DA60019B5B79102B0ED1164B164A13
:100A14009168019A12680A439A60134B124AD1688A
:100A2400019A12680A43DA601BE00F4B0393019B9F
:100A34005B79039AD3180393039B039A1168019A71
:100A440012680A431A600CE0019B1B79039AD318BD
:100A54000393039B039A1168019A1268D2430A40D4
:100A64001A6004B07047C046000401407047C04695
:100A7400FEE7C0467047C0467047C04608B5FFF75A
:100A840021FE08BD82B0021C6B4607331A70074B67
:100A94006A4607321278111C1F220A400121081CE1
:100AA4009040021C1A6002B07047C04600E100E0AA
:100AB40030B583B0021C00916B4607331A706B4645
:100AC40007331B787F2B36D933496B4607331B78A2
:100AD4001A1C0F231340083B98082F4A6B46073310
:100AE4001B781C1C0F232340083B9B0806339B00E8
:100AF400D3185B686A4607321278141C032222401A
:100B0400D200FF24251C95402A1CD2431A40009B86
:100B14009C01FF231C406B4607331B781D1C0323D9
:100B24002B40DB00251C9D402B1C1A43831D9B007E
:100B3400CB185A602DE0194B6A460732127852B22C
:100B44009208164968460730007840B28008C030E1
:100B540080004158684607300078041C0320204078
:100B6400C000FF24251C8540281CC0430840009970
:100B74008C01FF210C406946073109780D1C0321C3
:100B84002940C900251C8D40291C0143C032920014
:100B9400D15003B030BDC04600ED00E000E100E0FC
:100BA40000B585B0524B5A6980239B02134006D18D
:100BB4004F4B4F4A5269802189020A435A6190235C
:100BC400DB051B680393039AF0239B0513400393EF
:100BD400039B484A134303939023DB05039A1A604B
:100BE4009023DB059B889BB20393039A424B1340EB
:100BF40003939023DB05039A92B29A809023DB053A
:100C04009B680393039A3D4B134003939023DB05A6
:100C1400039A9A609023DB05DB680393039B9B0094
:100C24009B080393039B8022D205134303939023D1
:100C3400DB05039ADA602E4B5A698023DB021340EA
:100C440006D12B4B2A4A52698021C9020A435A61B0
:100C54002B4B1B680393039A2A4B13400393039B68
:100C6400294A13430393264B039A1A60244B9B8807
:100C74009BB20393039BC02293430393039B4022A1
:100C8400134303931E4B039A92B29A801C4B9B68A6
:100C94000393039A1D4B13400393194B039A9A60D1
:100CA400174BDB680393039BCC2293430393039B6F
:100CB400442213430393124B039ADA6001AB80225C
:100CC40052001A6001AB00221A7101AB10225A7152
:100CD40001AB01229A7101AB181CFFF75DFE0720DE
:100CE400FFF7D0FE07200621FFF7E2FE05B000BDA6
:100CF400001002405565680100E7FFFF00003FFC5B
:100D040000040048300FFFFF03500000FF0FFFFFF7
:100D1400034B034A1168034A0A401A607047C046ED
:100D240000040140FFFEFFFF034B034A12688021C9
:100D340049000A431A6070470004014082B0021C53
:100D44006B4607331A70074B6A4607321278111C38
:100D54001F220A400121081C9040021C1A6002B0A4
:100D64007047C04600E100E030B583B0021C00913A
:100D74006B4607331A706B4607331B787F2B36D9C3
:100D840033496B4607331B781A1C0F231340083B67
:100D940098082F4A6B4607331B781C1C0F232340EB
:100DA400083B9B0806339B00D3185B686A460732EE
:100DB4001278141C03222240D200FF24251C9540E3
:100DC4002A1CD2431A40009B9C01FF231C406B4603
:100DD40007331B781D1C03232B40DB00251C9D407F
:100DE4002B1C1A43831D9B00CB185A602DE0194B12
:100DF4006A460732127852B292081649684607309A
:100E0400007840B28008C0308000415868460730FE
:100E14000078041C03202040C000FF24251C8540CA
:100E2400281CC043084000998C01FF210C406946EE
:100E3400073109780D1C03212940C900251C8D4068
:100E4400291C0143C0329200D15003B030BDC046CA
:100E540000ED00E000E100E082B0021C6B460633C6
:100E64001A80034B6A46063212885A6302B07047EE
:100E74000004004082B0021C6B4606331A80064B05
:100E84006A46063212881A80C046034B1B889BB2FE
:100E9400002BFAD102B070476C000020054B1B8A6E
:100EA4009BB21A1C0123134002D0024B00221A8267
:100EB4007047C046000400401A4BDA69022313400D
:100EC40005D1184B174AD26902210A43DA61164B3D
:100ED40000221A80144B00229A80134B70221A832A
:100EE400114B00229A83104B0F4A128C92B20321A9
:100EF4000A4392B21A840C4BFF22DA620A4B002294
:100F04005A62094B0B221A85074B074A128892B280
:100F140001210A4392B21A809023DB0580225204F5
:100F24001A6270470010024000040040054B1B8AFF
:100F34009BB21A1C0123134002D0024B00221A82D6
:100F44007047C046002000400F4BDA6980235B00E5
:100F5400134006D10C4B0C4AD269802149000A4344
:100F6400DA610A4B00221A80084B2F221A85074B9C
:100F7400074ADA62054B054A928A92B201210A4372
:100F840092B29A827047C04600100240002000408E
:100F9400FFFF000008B50A2000F0BAFC054B1B8ACD
:100FA4009BB21A1C0123134002D0024B00221A8266
:100FB40008BDC0460044014008B5174B9A69802318
:100FC4009B02134006D1144B134A92698021890273
:100FD4000A439A61114B0022DA62104B00225A62D2
:100FE4000E4B2F221A850D4B0C4A928992B2012185
:100FF4000A4392B29A81094B084A128892B20C2190
:101004000A4392B21A801520FFF798FE1520072193
:10101400FFF7AAFE08BDC04600100240004401408C
:1010240082B0021C6B4606331A80074B6A460632AE
:101034001288DA62044B044A128892B201210A43EC
:1010440092B21A8002B0704700440140054B1B8ADB
:101054009BB21A1C0123134002D0024B00221A82B5
:101064007047C0460048014082B0021C6B460733FB
:101074001A70074B6A4607321278111C1F220A4065
:101084000121081C9040021C1A6002B07047C0463F
:1010940000E100E030B583B0021C00916B460733D9
:1010A4001A706B4607331B787F2B36D933496B464E
:1010B40007331B781A1C0F231340083B98082F4A48
:1010C4006B4607331B781C1C0F232340083B9B08EB
:1010D40006339B00D3185B686A4607321278141CE7
:1010E40003222240D200FF24251C95402A1CD2430F
:1010F4001A40009B9C01FF231C406B4607331B785E
:101104001D1C03232B40DB00251C9D402B1C1A4374
:10111400831D9B00CB185A602DE0194B6A46073299
:10112400127852B29208164968460730007840B2E5
:101134008008C03080004158684607300078041C9D
:1011440003202040C000FF24251C8540281CC043E8
:10115400084000998C01FF210C4069460731097849
:101164000D1C03212940C900251C8D40291C014365
:10117400C0329200D15003B030BDC04600ED00E053
:1011840000E100E000B583B05D4BDA692023134031
:1011940000D174E05A4B9B8C9AB26B4605331A709B
:1011A400584B1B78DBB2002B61D0574B1B889BB28A
:1011B400002B02D1554B80229A61534B1B889AB263
:1011C400FF235B009A420FD84F4B1B889BB2504AB7
:1011D400694605310978D1544B4B1B889BB20133C6
:1011E4009AB2494B1A8002E0474B00221A80464BC0
:1011F4001B889BB21A1C474B1B889BB2191C464B7D
:101204001B78DBB2CB189A4239DB6B4606330022DB
:101214001A8016E06B4606331B883E4A128892B247
:10122400111C6A46063212888A1839498A5CD1B27E
:101234003A4AD1546B4606336A4606321288013262
:101244001A80354B1B78DBB26A46063212889A4202
:10125400E0D32D4B00221A802A4B00221A70304B07
:1012640001221A70294B802212049A6107E0244B50
:10127400234A128B92B208210A4392B21A83204B5A
:101284001A68802313401ED01D4BDA698023134053
:1012940019D0244B1A68244B9A420BD2184A214B7A
:1012A4001B681B78DBB213851E4B1B685A1C1D4B35
:1012B4001A6008E0124B124A126880218A431A60AD
:1012C4000A2000F025FB0E4BDA690823134009D1EC
:1012D4000B4BDA690423134004D1094BDA69022366
:1012E40013400BD0064B064A126A0E210A431A62B7
:1012F400034B9B8C9AB26B4605331A7003B000BD46
:10130400003801406E0000207000002000040048F6
:1013140008010020000000200200002070030020CB
:101324006E030020F003002008030020044B054A4C
:101334001A60054B044A126880210A431A607047F8
:10134400F0030020080100200038014008B5154BC7
:101354009A698023DB01134006D1124B114A92692A
:101364008021C9010A439A619023DB059022D205AA
:10137400526A882149000A435A620B4BC0229A815F
:10138400094B094A5268802189010A435A60064B75
:101394002D221A601B20FFF767FE1B200521FFF793
:1013A40079FE08BD001002400038014008B59023C2
:1013B400DB0510229A61012000F00CFA9023DB0572
:1013C400802252039A6108BD08B59023DB05F02200
:1013D40012039A61032000F02DFAFFF7E7FF1420AF
:1013E400FFF748FDFFF7E2FF1420FFF743FDFFF787
:1013F400DDFF1420FFF73EFD9023DB05F0221203EE
:101404009A61022000F016FAFFF7D0FF3C2000F0AA
:10141400E1F9FFF7CBFF3C2000F0DCF99023DB057A
:10142400F02212039A61082000F004FAFFF7BEFFCD
:101434003C2000F0CFF99023DB05F02212039A61DF
:10144400002000F0F7F9FFF7B1FF3C2000F0C2F9EB
:101454009023DB05F02212039A61082000F0EAF9D8
:10146400FFF7A4FF3C2000F0B5F99023DB05F02240
:1014740012039A61002000F0DDF9FFF797FF3C208A
:1014840000F0A8F99023DB05F02212039A610120F1
:1014940000F0D0F9FFF78AFF1E20FFF7EBFC902342
:1014A400DB05F02212039A61002000F0C3F9FFF774
:1014B4007DFF3C2000F08EF99023DB05F02212031F
:1014C4009A61062000F0B6F9FFF770FF1E20FFF7BF
:1014D400D1FC08BD00B583B0021C6B4607331A70FB
:1014E4006B4607331B78072B00D9C4E09A00634B83
:1014F400D3181B689F469023DB05F02212039A61E0
:10150400FFF754FF1E2000F065F99023DB05F0225D
:1015140012039A61012000F08DF9FFF747FF1E20A6
:10152400FFF7A8FCA8E09023DB05F02212039A61E0
:10153400FFF73CFF1E2000F04DF99023DB05F0225D
:1015440012039A61022000F075F9FFF72FFF1E20A5
:10155400FFF790FC90E09023DB05F02212039A61E0
:10156400FFF724FF1E2000F035F99023DB05F0225D
:1015740012039A610C2000F05DF9FFF717FF1E209B
:10158400FFF778FC78E09023DB05F02212039A61E0
:10159400FFF70CFF1E2000F01DF99023DB05F0225D
:1015A40012039A61082000F045F9FFF7FFFE1E20A0
:1015B400FFF760FC60E09023DB05F02212039A61E0
:1015C400FFF7F4FE1E2000F005F99023DB05F0225E
:1015D40012039A610E2000F02DF9FFF7E7FE1E209A
:1015E400FFF748FC48E09023DB05F02212039A61E0
:1015F400FFF7DCFE1E2000F0EDF89023DB05F0225F
:1016040012039A610C2000F015F9FFF7CFFE1E209B
:10161400FFF730FC30E09023DB05F02212039A61DF
:10162400FFF7C4FE1E2000F0D5F89023DB05F0225E
:1016340012039A610F2000F0FDF8FFF7B7FE1E2099
:10164400FFF718FC18E09023DB05F02212039A61DF
:10165400FFF7ACFE1E2000F0BDF89023DB05F0225E
:1016640012039A610C2000F0E5F8FFF79FFE1E209C
:10167400FFF700FC00E0C04603B000BDD0610008E5
:1016840000B585B0021C6B4607331A706B460733EE
:101694006A4607321278802149420A431A706B461F
:1016A4000F336A46073212781A706B460F336A4654
:1016B4000F32127812091A709023DB05F0221203FC
:1016C4009A616B460F331B78181C00F0B3F8FFF7D0
:1016D4006DFE1E2000F07EF86B460F336A4607321B
:1016E40012781A706B460F336A460F3211780F2244
:1016F4000A401A709023DB05F02212039A616B46AC
:101704000F331B78181C00F095F8FFF74FFE1E20CE
:1017140000F060F805B000BD00B585B0021C6B4652
:1017240007331A709023DB0520229A616B460F332E
:101734006A46073212781A706B460F336A460F32C4
:10174400127812091A709023DB05F02212039A61B1
:101754006B460F331B78181C00F06CF8FFF726FE5D
:101764001E2000F037F86B460F336A4607321278B2
:101774001A706B460F336A460F3211780F220A40F3
:101784001A709023DB05F02212039A616B460F3323
:101794001B78181C00F04EF8FFF708FE1E2000F01E
:1017A40019F89023DB05802292039A6105B000BDED
:1017B40000B583B0019007E0019B1B78181CFFF76C
:1017C400ABFF019B01330193019B1B78002BF3D1E9
:1017D40003B000BD84B0021C6B4606331A806B460E
:1017E4000E3300221A701EE06B460F3300221A706B
:1017F4000DE06B460E336A460E32127801321A70CF
:101804006B460F336A460F32127801321A706B46F8
:101814000F331B781D2BECD96B4606336A46063210
:101824001288013A1A806B4606331B88002BDBD1E1
:1018340004B0704730B583B0021C6B4607331A708E
:101844009023DB050F221A859023DC059023DB050A
:101854009D696B4607331B78181C00F005F8031CC0
:101864002B43A36103B030BD84B0021C6B46073325
:101874001A706B460F3300221A706B4607331A78BE
:101884000123134007D06B460F336A460F32127898
:1018940008210A431A706B4607331A78022313404F
:1018A40007D06B460F336A460F32127804210A437D
:1018B4001A706B4607331A780423134007D06B461B
:1018C4000F336A460F32127802210A431A706B46AC
:1018D40007331A780823134007D06B460F336A4640
:1018E4000F32127801210A431A706B460F331B78AA
:1018F400181C04B07047C04608B5FFF715FA034B2F
:10190400024A126801210A431A6008BD00380140E6
:1019140000B583B0021C6B4607331A706B4607335D
:101924001B78002B0DD1324B1B78DBB2002B04D07B
:101934002F4B1B78DBB2042B03D12D4B00221A70E2
:1019440004E06B4607331B780A2B4BD1284B1B78DA
:10195400DBB2042B3ED89A00264BD3181B689F4653
:101964009023DB05802252019A61234B80229A61E5
:101974001F4B1B78DBB20133DAB21D4B1A701E4BBE
:101984008022D2039A615820FFF74AFB2DE0184BBE
:101994001B78DBB20133DAB2154B1A70164B4022B6
:1019A4009A610820FFF73CFB1FE0114B1B78DBB268
:1019B4000133DAB20E4B1A70FFF7B8FC15E00C4B8A
:1019C40004221A700C4B40229A610B4B80221204A1
:1019D4009A610AE0064B04221A70074B40229A616E
:1019E400C04602E0C04600E0C04603B000BDC046A9
:1019F40084000020F061000800040048324B1B788A
:101A0400DBB2002B00D05EE0304B1B8A9BB21A1C69
:101A14000823134006D12E4B1B8801339AB22C4B5A
:101A24001A801FE02A4B1B88322B06D9284B1B88AF
:101A3400323B9AB2264B1A8014E0254B1B880A2BA2
:101A440006D9234B1B88053B9AB2214B1A8009E027
:101A54001F4B1B88002B05D01D4B1B88013B9AB2E2
:101A64001B4B1A80194B1B8A9BB21A1C022313406E
:101A740006D1184B1B8801339AB2164B1A801FE00B
:101A8400144B1B88322B06D9124B1B88323B9AB25B
:101A9400104B1A8014E00F4B1B880A2B06D90D4BF0
:101AA4001B88053B9AB20B4B1A8009E0094B1B8833
:101AB400002B05D0074B1B88013B9AB2054B1A80BB
:101AC400014B0A221A707047740000200004004879
:101AD400340300207A030020234B1B78DBB2002B55
:101AE40035D1224B1B78002B0DD0214B1B88FE2BAC
:101AF40005D81F4B1B8801339AB21D4B1A801B4B10
:101B040000221A701FE01A4B1B88322B06D9184B7F
:101B14001B88323B9AB2164B1A8014E0144B1B8874
:101B24000A2B06D9124B1B88053B9AB2104B1A801C
:101B340009E00F4B1B88002B05D00D4B1B88013B84
:101B44009AB20B4B1A80084B16221A700AE09023A3
:101B5400DB051B8A9BB29BB21BB2002B02DB034B3F
:101B640001221A707047C04675000020320300201D
:101B7400A20300200A4B1B88882B01D90A230CE0FE
:101B8400074B1B882D2B01D9032306E0044B1B882C
:101B9400022B01D9012300E00023181C7047C04622
:101BA400A20300200B4B1A8896235B009A4201D9AA
:101BB4000A230CE0074B1B88642B01D9032306E09E
:101BC400044B1B88052B01D9012300E00023181CBA
:101BD4007047C046340300200B4B1A8896235B00E1
:101BE4009A4201D90A230CE0074B1B88642B01D9C4
:101BF400032306E0044B1B88052B01D9012300E0D5
:101C04000023181C7047C0467A03002010B582B028
:101C14006B4607330E221A706B46063300221A7085
:101C2400784B1B78232B00D9D3E09A00764BD3183A
:101C34001B689F466C460634744A754B101C191C6D
:101C44000322002300F0F0F8031C23706B460633D4
:101C54001B780A2B00D0C2E06A4B04221A70BEE043
:101C64006C4606346B4B181C00F000FA031C2370FE
:101C74006B4606331B78022B02D1624B08221A7082
:101C84006B4606331B78012B02D15E4B1E221A7061
:101C94006B4606331B78032B00D0A2E0594B00227D
:101CA4001A709EE06C4606345B4B181C00F0DEF99B
:101CB400031C23706B4606331B78022B02D1514B55
:101CC4000C221A706B4606331B78012B02D14D4B44
:101CD40020221A706B4606331B78032B00D082E057
:101CE400484B00221A707EE06C4606344B4B181C9D
:101CF40000F0BCF9031C23706B4606331B78022BDF
:101D040002D1404B04221A706B4606331B78012B18
:101D140002D13C4B22221A706B4606331B78032BEC
:101D240063D1384B00221A705FE03A4A3C4B101CD6
:101D3400191C0022022300F077F8324B1B78013380
:101D4400DAB2304B1A7057E0FFF746FF031C002B42
:101D54004DD16B4607331E221A702A4B00221A708B
:101D640045E02D4A2E4B101C191C0022022300F0C2
:101D74005BF8244B1B780133DAB2224B1A703BE038
:101D8400FFF72AFF031C002B33D16B4607332022B5
:101D94001A701C4B00221A702BE0224A204B101C94
:101DA400191C0022022300F03FF8164B1B78013364
:101DB400DAB2144B1A701FE0FFF70EFF031C002B5E
:101DC40019D16B46073322221A700E4B00221A7067
:101DD40011E00C4B00221A700EE0C0460CE0C04625
:101DE4000AE0C04608E0C04606E0C04604E0C0463B
:101DF40002E0C04600E0C0466B4607331B78181C5F
:101E040002B010BD8500002008620008005C0008D4
:101E1400145C0008285C00083C5C0008505C000866
:101E2400645C0008785C000800B587B003900291F8
:101E3400111C1A1C6B46073319706B4606331A7053
:101E44006B46173300221A70804B1B78062B00D97F
:101E5400E5E09A007E4BD3181B689F466B46063319
:101E64001B78002B03D1794B01221A700BE06B46CF
:101E740006331B78012B03D1744B03221A7002E042
:101E8400724B05221A70734B6A46073212781A7025
:101E9400714B00221A80D3E06F4B1B889BB2002B3E
:101EA40000D0C4E06B4B1B78002B1BD0694B1B7814
:101EB400013BDAB2674B1A700020FFF7E1FB039B8A
:101EC400181CFFF775FC4020FFF7DAFB029B181C77
:101ED400FFF76EFC604BFA2292001A805B4B0222E1
:101EE4001A70A4E0594B00221A706B4617330A2269
:101EF4001A709CE0584B1B889BB2002B00D098E0D2
:101F04000020FFF7BDFB554B181CFFF751FC402088
:101F1400FFF7B6FB514B181CFFF74AFC4E4B9622B9
:101F240092001A80494B01221A7082E04A4B1B88A6
:101F34009BB2002B00D07EE0464B1B78002B1BD0BD
:101F4400444B1B78013BDAB2424B1A700020FFF776
:101F540097FB039B181CFFF72BFC4020FFF790FB1B
:101F64003E4B181CFFF724FC3B4BFA2292001A80CC
:101F7400364B04221A705EE00020FFF781FB374BDA
:101F8400181CFFF715FC314B00221A706B461733EF
:101F94000A221A704FE0304B1B889BB2002B4CD1A5
:101FA4000020FFF76DFB2D4B181CFFF701FC4020B0
:101FB400FFF766FB029B181CFFF7FAFB264BFA227D
:101FC40092001A80214B03221A7036E00020FFF79A
:101FD40057FB039B181CFFF7EBFB4020FFF750FB5C
:101FE400029B181CFFF7E4FB6B4607331B789BB27C
:101FF400FA22920053439AB2174B1A80134B0622CB
:102004001A701DE0144B1B889BB2002B17D10F4B89
:1020140000221A706B4617330A221A700FE00B4B1A
:1020240000221A706B4617330A221A7008E0C04661
:1020340006E0C04604E0C04602E0C04600E0C046F8
:102044006B4617331B78181C07B000BD8C000020AA
:10205400986200088D00002072000020846100084E
:10206400014B00221A7070478600002000B585B02D
:1020740001906B460F3300221A70664B1B78072BB6
:1020840000D9B5E09A00644BD3181B689F464020E2
:10209400FFF7F6FA614B181CFFF78AFB5D4B1B78C0
:1020A4000133DAB25B4B1A70ADE00020FFF7E8FAB7
:1020B400019B181CFFF77CFB594BFA2292001A80F3
:1020C400544B1B780133DAB2524B1A709BE0544BD9
:1020D4001B889BB2002B10D10020FFF7D1FA514B83
:1020E400181CFFF765FB4E4BFA2252001A80494B2D
:1020F4001B780133DAB2474B1A70FFF753FD031C08
:10210400002B02D0434B06221A70FFF765FD031C17
:10211400002B00D170E03F4B04221A706CE0404B5E
:102124001B889BB2002B02D13A4B01221A70FFF795
:1021340039FD031C002B02D0364B06221A70FFF720
:102144004BFD031C002B59D0324B04221A7055E06E
:102154000020FFF795FA019B181CFFF729FB40208C
:10216400FFF78EFA304B181CFFF722FB294B1B7824
:102174000133DAB2274B1A7045E0FFF72DFD031C3B
:10218400002B3DD16B460F3301221A70214B0022E4
:102194001A7035E00020FFF773FA019B181CFFF753
:1021A40007FB4020FFF76CFA204B181CFFF700FBDD
:1021B400184B1B780133DAB2164B1A7023E0FFF781
:1021C400F1FC031C002B06D16B460F3302221A705C
:1021D400104B00221A70FFF7E5FC031C032B11D9E6
:1021E4006B460F3303221A700A4B00221A7009E05F
:1021F400084B00221A7006E0C04604E0C04602E024
:10220400C04600E0C0466B460F331B78181C05B06F
:1022140000BDC04686000020B4620008A05C00082F
:102224007200002084610008645C00088C5C000873
:1022340000B587B00390029101921A1C6B460333D8
:102244001A706B46173300221A7008AB1B785BB206
:10225400002B24DA08AB1A787F231A406B46033329
:102264001B789A4218DA8C4B1B78002B07D108ABE9
:102274001A787F231340DAB2884B1A700FE0874B29
:102284001B781A1C08AB19787F230B409A4206D09E
:10229400814B0A221A7002E0804B00221A707E4B96
:1022A4001B780A2B00D9E6E09A007D4BD3181B68F3
:1022B4009F460020FFF7E4F9039B181CFFF778FA08
:1022C4004020FFF7DDF9029B181CFFF771FA754BEC
:1022D40000221A80704B1B780133DAB26E4B1A70ED
:1022E400D4E0704B1B889BB2002B00D0C7E06B4B33
:1022F4001B78019AD3181B78181CFFF7C1F96A4B95
:10230400181CFFF755FA674BFA2292001A80624BA9
:102314001B780133DAB2604B1A70B0E0FFF742FC6D
:10232400031C002B02D05C4B0A221A70FFF754FCEA
:10233400031C002B0CD0594B1B781B01DBB2012270
:102344001343DAB26B4617331A70534B00221A70D8
:10235400544B1B889BB2002B00D092E04F4B1B7850
:10236400019AD3181B78181CFFF78AF94F4B181CD5
:10237400FFF71EFA4B4BFA2252001A80464B0422F6
:102384001A707EE0FFF70EFC031C002B00D07AE0ED
:10239400414B02221A7076E0FFF704FC031C002B69
:1023A40002D03D4B0A221A70FFF716FC031C002BC7
:1023B4000CD03A4B1B781B01DBB201221343DAB277
:1023C4006B4617331A70344B00221A70354B1B8836
:1023D4009BB2002B59D1314B1B78019AD3181B782F
:1023E400181CFFF74DF9304B181CFFF7E1F92D4B82
:1023F400FA2292001A80284B02221A7045E0274BD9
:102404001B78019AD3181B78181CFFF739F9274B4E
:10241400181CFFF7CDF908AB1B785BB2002B07DA69
:1024240008AB1A787F231340DAB21C4B1A7012E0FF
:102434001A4B1B781A1C6B4603331B78013B9A42D8
:1024440006DA164B1B780133DAB2144B1A7002E029
:10245400124B00221A70114B1B78019AD3181B7867
:10246400181CFFF70DF9104B181CFFF7A1F90A4BC4
:1024740003221A700AE0084B00221A7006E0C046D4
:1024840004E0C04602E0C04600E0C0466B46173395
:102494001B78181C07B000BD8700002088000020AE
:1024A400D462000872000020B45C0008B85C000824
:1024B400014B00221A7070478700002010B58AB0C3
:1024C4000390081C111C1A1C6B460B3318706B46C6
:1024D4000A3319706B4609331A706B46273300228E
:1024E4001A706B46263300221A70744B1B78002B2B
:1024F40002D0012B10D0D5E0039B1A78704B1A70D0
:10250400704B00221A70FFF7D3FF6C4B1B7801331A
:10251400DAB26A4B1A70CAE004AB181C20211422E8
:1025240002F067FF6B460B331B78002B19D1644B09
:102534001B7804A9644A081C111C1A1C02F062FFCF
:1025440004AB181C02F080FF031C04AAD2185F4BD2
:10255400111C1A1C0823081C111C1A1C02F040FF31
:1025640037E06B460B331B78012B19D1544B1B7886
:1025740004A9574A081C111C1A1C02F043FF04AB9F
:10258400181C02F061FF031C04AAD218514B111C41
:102594001A1C0A23081C111C1A1C02F021FF18E043
:1025A400474B1B7804A94C4A081C111C1A1C02F046
:1025B40029FF04AB181C02F047FF031C04AAD2181D
:1025C400464B111C1A1C0823081C111C1A1C02F06F
:1025D40007FF3C4B18786C462634414904AA414B0A
:1025E4000090081C111C1A1C0323FFF721FE031C76
:1025F4002370344B00221A706B4626331A780F234B
:102604001340012B52D16B4626336A462632127888
:102614000F218A431A706B4626336A462632127893
:1026240012091A706B4626331B78002B10D1244BE9
:102634001B786A46093212789A4205D9204B1B78D6
:102644000133DAB21E4B1A706B46273304221A7018
:102654006B4626331B78012B13D1194B1B786A4622
:102664000A3212789A4205D2154B1B78013BDAB232
:10267400134B1A70134B81221A706B4627330422B2
:102684001A706B4626331B78022B0FD10B4B00229A
:102694001A706B4627330A221A70094B1A78039B67
:1026A4001A7003E0054B00221A7000E0C0466B4626
:1026B40027331B78181C0AB010BDC0468E000020BA
:1026C4008F00002090000020BC5C0008C85C00085B
:1026D400D05C0008D85C0008E45C0008F05C0008EA
:1026E400F85C000804620008014B00221A7070476D
:1026F4008E00002000B585B001906B460F33002298
:102704001A704A4B1B78012B19D0022B00D176E0AA
:10271400002B00D07BE0019B181C02F095FE031CEB
:10272400DBB22033DAB2424B1A70424B01221A70E8
:102734003E4B1B780133DAB23C4B1A7070E03E4BCF
:102744001B889BB2002B6AD13A4B1A786B460D3327
:1027540010321A704020FEF793FF6B460E33354A51
:1027640012781A7039E06B460E331B780F2B03D89E
:102774002020FEF7D1FF29E06B460E331A782C4B4C
:102784001B78103B9A420ADA6B460E331B78103BD7
:10279400019AD3181B78181CFEF7BEFF16E0244BD1
:1027A4001B786A460E3212789A4203D22020FEF732
:1027B400B3FF0BE06B460E336A460D3212781A7083
:1027C4001A4B1B780133DAB2184B1A706B460E336E
:1027D4006A460E32127801321A706A460E326B461D
:1027E4000D3312781B789A42BDD3124B1B780133F8
:1027F400DAB2104B1A70104B104A1A800FE06B4675
:102804000F330A221A70094B00221A7008E06B4633
:102814000F330A221A70054B00221A7000E0C046DA
:102824006B460F331B78181C05B000BD89000020CF
:102834008A0000208B00002078000020260200007F
:1028440010B582B06B46073300221A706B4606330C
:1028540000221A70C44B1B78142B00D907E29A008B
:10286400C24BD3181B689F46C14BFA2292001A80B0
:10287400C04BC14A1A80C14AC14B111C1A1C0E23F9
:10288400081C111C1A1C02F0ABFD01F0ADF8BD4B85
:1028940002221A70B44B1B780133DAB2B24B1A70AD
:1028A400FCE16C46063400F001FF031C23706B4608
:1028B40006331B780A2B00D0DDE1AB4B14221A70CF
:1028C400B04B00221A70D6E1FEF722FAAE4B012279
:1028D4001A70AA4B1A79AD4B1A70A34B02221A70C4
:1028E400DCE1FFF747F9031C002B00D1C5E1A04B45
:1028F400A74A1A809C4B03221A70BEE1FFF73AF9EB
:10290400031C002B00D0BAE19023DB0580221201C6
:102914009A619C4B1B78022B06D10020FEF7B0FE77
:102924009C4B181CFEF744FF984B1B78322B06D99E
:102934008D4B05221A708E4B00221A809FE1964B14
:1029440033221A80944B1B88181CFEF785FA884B97
:10295400C82252001A80844B04221A708FE1844BDF
:102964001B889BB2002B00D08BE1814B01221A8083
:10297400864B1B781A1C884B1B889A4219D0834BB0
:102984001B781A1C844B1B889A4206D9824B1B88DD
:1029940001339AB2804B1A8005E07F4B1B88013BC0
:1029A4009AB27D4B1A807C4B1B88181CFEF754FA94
:1029B40067E1744B1B78022B06D10020FEF760FE02
:1029C400764B181CFEF7F4FE674B06221A7058E18A
:1029D400674B1B889BB2002B00D054E1674B1B89CB
:1029E400FF2B06D9654B1B891B0A9AB2604B1A80D0
:1029F40002E05F4B01221A80644B1B781A1C664B61
:102A04001B889A4212D95D4B1B791A1C624B1B8896
:102A14009A420BD9604B1B88181CFEF71DFA5E4BBB
:102A24001B8801339AB25C4B1A802CE1554B1B78FE
:102A3400022B06D10020FEF723FE584B181CFEF78C
:102A4400B7FE494B06221A701DE1FFF793F8031CE9
:102A5400002B00D119E1464B4D4A1A80424B072204
:102A64001A7012E1FFF786F8031C002B1AD1404BB1
:102A74001B889BB2002B15D0474B1B88DAB2434B03
:102A84001A70404B1B78022B06D10020FEF7F8FD8C
:102A9400434B181CFEF78CFE334B08221A70344B40
:102AA40001221A80324B1B889BB2002B00D0EEE02F
:102AB4002D4B09221A70EAE02D4B1B889BB2002B88
:102AC40000D0E6E02D4B1B89FF2B06D92B4B1B892D
:102AD4001B0A9AB2264B1A8002E0254B01221A8067
:102AE4002D4B1B88002B0BD02B4B1B88181CFEF77F
:102AF400B3F9294B1B88013B9AB2274B1A80C8E0D3
:102B04000020FEF7A9F9184B02221A701D4B1B78FE
:102B1400022B06D10020FEF7B3FD224B181CFEF752
:102B240047FE9023DB05802212059A61B1E0164B23
:102B34001B78002B03D10C4B0A221A70AEE00A4B0F
:102B44000B221A70AAE00A4B1B889BB2002B00D000
:102B5400A1E00A4B5B89FF2B26D9084B5B891B0A32
:102B64009AB2034B1A8022E091000020046300080B
:102B74002E0300209E03002030750000F403002083
:102B84005C6100089200002097000020960000205D
:102B9400DC0500000C5D000894000020205D0008A6
:102BA400345D0008485D0008B74B01221A80FEF727
:102BB400E1FF031C002B13D0B44B1B791A1CB44B3C
:102BC4001B889A4200D866E0B14B1B8801339AB245
:102BD400AF4B1A80AE4B1B88181CFEF73DF95AE028
:102BE400AA4B1B791A1CAA4B1B889A4202D8A94BE0
:102BF40001221A70A84B06221A704CE0A24B1B88C3
:102C04009BB2002B49D1A14B5B89FF2B06D99F4B6B
:102C14005B891B0A9AB29C4B1A8002E09A4B0122F0
:102C24001A80FEF7A7FF031C002B12D0974B9B7949
:102C34001A1C974B1B889A422FD2954B1B88013B39
:102C44009AB2934B1A80924B1B88181CFEF704F916
:102C540023E08E4B9B791A1C8D4B1B889A4202D31E
:102C64008C4B00221A708C4B06221A7015E08A4B8A
:102C740000221A7012E0C04610E0C0460EE0C046C2
:102C84000CE0C0460AE0C04608E0C04606E0C04684
:102C940004E0C04602E0C04600E0C0467F4B1B781B
:102CA400012B4DD002DC002B06D0D3E0022B60D0E8
:102CB400032B00D17FE0CDE06C46063400F000F930
:102CC400031C23706B4606331B78042B02D1744B10
:102CD400744A1A806B4606331B78012B18D1704B4B
:102CE400704A1A809023DB059B8A9BB21A1C8023AE
:102CF4001B01134003D0684B06221A7002E0664B96
:102D040002221A70654B1B780133DAB2634B1A70D6
:102D1400634B1B889BB2002B00D09FE00020FEF782
:102D2400AFFC614B181CFEF743FD4020FEF7A8FCE6
:102D34005D4B181CFEF73CFD584B02221A708DE0C7
:102D44006C460634594A5A4B101C191C01220223A2
:102D5400FFF76AF8031C23706B4606331B780A2BB3
:102D640000D07DE04C4B14221A704C4B00221A7098
:102D740076E0FEF717FF031C002B05D1FEF72CFFAE
:102D8400031C002B00D16DE0454B464A1A800020FD
:102D9400FEF776FC474B181CFEF70AFD3F4B1B78E9
:102DA4000133DAB23D4B1A703B4B1B78012B59D1DE
:102DB40000F020FE56E0FEF7F5FE031C002B53D175
:102DC400FEF70AFF031C002B4ED1344B00221A706D
:102DD400394B1B78062B07D84020FEF751FC374BA4
:102DE400181CFEF7E5FC3FE0334B1B780C2B03D893
:102DF400314B01221A7026E02F4B1B78122B03D87B
:102E04002D4B02221A701EE02B4B1B78142B03D877
:102E1400294B03221A7016E0274B1B78162B03D874
:102E2400254B04221A700EE0234B1B78182B03D871
:102E3400214B05221A7006E01F4B1B781A2B02D86F
:102E44001D4B06221A70FFF733FBFFF709F9FFF752
:102E54004BFC09E0114B00221A7006E0C04604E066
:102E6400C04602E0C04600E0C046FEF79BFE031CDD
:102E7400032B03D96B46073303221A706B460733BF
:102E84001B78181C02B010BD2E030020F403002090
:102E94009400002097000020910000209200002060
:102EA4009E03002030750000846100085C5D00080A
:102EB400705D0008805D000898000020945D0008A3
:102EC40010B584B06B460F3300221A706B460E3374
:102ED40000221A706B46093300221A70CD4B1B78FE
:102EE4001A2B01D900F0B7FB9A00CB4BD3181B68FF
:102EF4009F466C460E34C94AC94B101C191C01224A
:102F04000223FEF791FF031C23706B460E331B78DC
:102F14000A2B01D000F0A3FBBE4B1B780133DAB2BD
:102F2400BC4B1A7000F09BFB6C460E34BD4B181C56
:102F3400FFF79CF8031C23706B460E331B78022B9F
:102F440002D1B44B02221A706B460E331B78012B4C
:102F540002D1B04B0A221A706B460E331B78002B39
:102F640000D17EE36B460F3304221A7079E36C467A
:102F74000E34AD4B181CFFF779F8031C23706B4615
:102F84000E331B78022B02D1A24B03221A706B461C
:102F94000E331B78012B02D19E4B0D221A706B4607
:102FA4000E331B78002B00D15DE36B460F330422F4
:102FB4001A7058E36C460E349C4B181CFFF756F8F5
:102FC400031C23706B460E331B78022B02D1914BEA
:102FD40004221A706B460E331B78012B02D18D4BE1
:102FE40013221A706B460E331B78002B00D13CE37E
:102FF4006B460F3304221A7037E36C460E348C4B45
:10300400181CFFF733F8031C23706B460E331B7830
:10301400022B02D17F4B05221A706B460E331B78AC
:10302400012B02D17B4B15221A706B460E331B7891
:10303400002B00D11BE36B460F3304221A7016E3F6
:103044006C460E347B4B181CFFF710F8031C2370DE
:103054006B460E331B78022B02D16E4B06221A707C
:103064006B460E331B78012B02D16A4B17221A7060
:103074006B460E331B78002B00D1FAE26B460F33FC
:1030840004221A70F5E26C460E346B4B181CFEF7E2
:10309400EDFF031C23706B460E331B78022B02D109
:1030A4005C4B01221A706B460E331B78012B02D144
:1030B400584B19221A706B460E331B78002B00D123
:1030C400D9E26B460F3304221A70D4E25B4B1B78AF
:1030D400002B04D06B460E3380221A7003E06B463B
:1030E4000E3381221A705649564A574B68460E30A1
:1030F40000780090081C111C1A1C0323FFF798F891
:10310400444B1B780133DAB2424B1A70C2E26C466C
:103114000E344B494B4A4C4B00200090081C111CA8
:103124001A1C0323FFF784F8031C23706B460E3329
:103134001A780F231340012B00D09EE26B460E3306
:103144006A460E3212780F218A431A706B460E3388
:103154006A460E32127812091A706B460E331B78C7
:10316400002B02D1354B01221A706B460E331B78AB
:10317400012B02D1314B00221A706B460E331B789F
:10318400022B11D16B460F3304221A70214B1B788A
:103194000133DAB21F4B1A700020FEF771FA2B4B81
:1031A400181CFEF705FB68E26B460F3301221A7008
:1031B400184B01221A7060E2FEF70EFD031C002B6F
:1031C40002D1144B01221A706B460F3304221A7079
:1031D40060E21A4B5B78002B04D06B460E338022DE
:1031E4001A7003E06B460E3381221A701449154A93
:1031F400154B68460E3000780090081C111C1A1CF0
:103204000323FFF715F8034B1B780133DAB2014BA4
:103214001A703FE29800002058630008A85D000877
:10322400BC5D0008C85D0008DC5D0008F05D0008B6
:10323400045E0008185E00082C5E0008F4030020F9
:10324400405E00088461000800630008805D000897
:103254006C460E34D149D24AD24B00200090081C4F
:10326400111C1A1C0323FEF7E3FF031C23706B4697
:103274000E331A780F231340012B00D0FFE16B4665
:103284000E336A460E3212780F218A431A706B4647
:103294000E336A460E32127812091A706B460E33D8
:1032A4001B78002B0FD1C04B01225A70BF4B1B78E7
:1032B4000133DAB2BD4B1A700020FEF7E1F9BC4BC2
:1032C400181CFEF775FA6B460E331B78012B09D1D7
:1032D400B54B00225A706B460F3301221A70B34B60
:1032E40002221A706B460E331B78022B00D0C6E103
:1032F4006B460F3304221A70AC4B11221A70002053
:10330400FEF7BEF9AA4B181CFEF752FAB7E1FEF716
:1033140063FC031C002B05D1A44B1B780133DAB2E8
:10332400A24B1A706B460F3304221A70B2E16C463A
:103334000E34A04B181C002100226423FFF7BEF8B2
:10334400031C23706B460E331B780A2B02D1974B58
:1033540012221A706B460F3304221A709AE1FEF798
:103364003BFC031C002B02D1904B02221A706B46CB
:103374000F3304221A708DE16B460F3304221A7046
:10338400FEF72AFC031C002B00D07AE1874B0222B3
:103394001A706B460F3301221A7072E16C460E34B8
:1033A400854B181C002100226423FFF787F8031CB7
:1033B40023706B460E331B780A2B1ED17A4BDB78B5
:1033C40003AA191C0902CB1A138003AC03AB1B8894
:1033D400181C6421FCF774FE031C238003AB1B88B8
:1033E400DAB2714B1A71714B14221A700020FEF775
:1033F40047F96F4B181CFEF7DBF96B460F330422B9
:103404001A7047E16B460F3304221A70FEF7E4FB8F
:10341400031C002B00D036E1634B1B791A1C674B4D
:103424001B889A420CD2604B1B791A1C634B1A807E
:10343400624B1B88181CFDF70FFD614B01221A70AB
:103444005A4B03221A706B460F3301221A701AE189
:103454006C460E345B4B181C002100226423FFF7DA
:103464002DF8031C23706B460E331B780A2B22D1D4
:103474004D4B5B796A460A32191C0902CB1A138038
:103484006C460A346B460A331B88181C6421FCF70B
:1034940017FE031C23806B460A331B88DAB2424BA7
:1034A4009A71424B16221A700020FEF7E9F8404B3D
:1034B400181CFEF77DF96B460F3304221A70E9E0FD
:1034C4006B460F3304221A70FEF786FB031C002B95
:1034D40000D0DAE0344B9B791A1C384B1B889A4293
:1034E4000CD9314B9B791A1C344B1A80334B1B88F3
:1034F400181CFDF7B1FC324B00221A702B4B04222E
:103504001A706B460F3301221A70BEE0264B1B89DA
:10351400181CFA239900FCF7D3FD031C9BB2DAB202
:103524006B4609331A706C460E346B460933181C0B
:10353400012100220A23FEF7C1FF031C23706B46FE
:103544000E331B780A2B12D16B4609331B78FA22EF
:10355400920053439AB2144B1A81144B18221A70D6
:103564000020FEF78DF8124B181CFEF721F96B466C
:103574000F3304221A708DE06B460F3304221A7045
:10358400FEF72AFB031C002B00D080E0074B05222A
:103594001A706B460F3301221A7078E0405E0008FF
:1035A4008461000800630008F403002098000020F0
:1035B400805D0008F6030020F7030020940000203B
:1035C40097000020F9030020354B5B89181CFA236F
:1035D4009900FCF775FD031C9BB2DAB26B46093304
:1035E4001A706C460E346B460933181C01210022F4
:1035F4000A23FEF763FF031C23706B460E331B780C
:103604000A2B12D16B4609331B78FA2292005343DA
:103614009AB2234B5A81234B1A221A700020FEF7C8
:103624002FF8214B181CFEF7C3F86B460F33042206
:103634001A702FE06B460F3304221A70FEF7CCFA8F
:10364400031C002B25D1174B06221A706B460F332F
:1036540001221A701DE0134B00221A701AE0C046B2
:1036640018E0C04616E0C04614E0C04612E0C0466A
:1036740010E0C0460EE0C0460CE0C0460AE0C0467A
:1036840008E0C04606E0C04604E0C04602E0C0468A
:1036940000E0C0466B460F331B78181C04B010BD05
:1036A400F403002098000020805D000810B586B067
:1036B4006B46173300221A706B46163300221A70B9
:1036C400B84B1B78062B00D952E19A00B64BD3189D
:1036D4001B689F460020FDF7D3FFB44B181CFEF770
:1036E40067F8B04B1B780133DAB2AE4B1A7052E173
:1036F400AF4B1B78002B08D06C461634AD4B181C0E
:10370400FEF7F8FF031C237007E06C461634AA4B3F
:10371400181CFEF7EFFF031C23706B4616331B784F
:103724000A2B00D02CE19F4B1B780133DAB29D4B5E
:103734001A7025E19E4B5B78002B27D06B46181C32
:103744002021142201F055FE994B9B7869469B4A2F
:10375400081C111C1A1C01F055FE6B46181C01F0C4
:1037640073FE031C6A46D218954B111C1A1C0223C3
:10377400081C111C1A1C01F033FE6C4616346B46EF
:10378400181CFEF7B7FF031C237007E06C461634C1
:103794008C4B181CFEF7AEFF031C23706B461633CC
:1037A4001B780A2B00D0EDE07E4B1B780133DAB294
:1037B4007C4B1A70E6E06B46181C2021142201F0A1
:1037C40018FE7B4BDB7869467F4A081C111C1A1CC7
:1037D40001F018FE6B46181C01F036FE031C6A4605
:1037E400D218774B111C1A1C0223081C111C1A1C1A
:1037F40001F0F6FD6C4616346B46181CFEF77AFF92
:10380400031C23706B4616331B780A2B00D0BBE0D5
:10381400644B1B780133DAB2624B1A70B4E06B4626
:10382400181C2021142201F0E4FD614B5B796946E8
:10383400664A081C111C1A1C01F0E4FD6B46181C96
:1038440001F002FE031C6A46D2185D4B111C1A1CBF
:103854000223081C111C1A1C01F0C2FD6C4616340C
:103864006B46181CFEF746FF031C23706B46163389
:103874001B780A2B00D089E04A4B1B780133DAB25B
:10388400484B1A7082E06B46181C2021142201F068
:10389400B0FD474B1B89181CFA239900FCF710FC58
:1038A400031C9BB269464A4A081C111C1A1C01F0ED
:1038B400A9FD6B46181C01F0C7FD031C6A46D2180B
:1038C400444B111C1A1C0223081C111C1A1C01F065
:1038D40087FD6C4616346B46181CFEF70BFF031C61
:1038E40023706B4616331B780A2B51D12D4B1B7852
:1038F4000133DAB22B4B1A704AE06B46181C2021B4
:10390400142201F076FD2A4B5B89181CFA239900D6
:10391400FCF7D6FB031C9BB269462F4A081C111CFA
:103924001A1C01F06FFD6B46181C01F08DFD031C81
:103934006A46D218274B111C1A1C0223081C111C9E
:103944001A1C01F04DFD6C4616346B46181CFEF72C
:10395400D1FE031C23706B4616331B780A2B19D136
:10396400104B00221A706B4617330A221A7011E0AA
:103974000C4B00221A706B4617330A221A700AE0A5
:10398400C04608E0C04606E0C04604E0C04602E087
:10399400C04600E0C0466B4617331B78181C06B0BF
:1039A40010BDC04699000020C4630008545E00089E
:1039B400F4030020685E00087C5E0008905E000846
:1039C400A05E0008A45E0008B85E0008C85E000897
:1039D400D85E0008EC5E0008F05E0008014B00228F
:1039E4001A70704791000020014B00221A70704732
:1039F40098000020014B07221A707047990000209C
:103A040010B588B06B461F3300221A706B461B3307
:103A140000221A70C54B1B78142B00D92FE39A008F
:103A2400C34BD3181B689F46C24BFA2292001A80DC
:103A3400C14BC24A1A80C24AC24B111C1A1C12231F
:103A4400081C111C1A1C01F0CBFC01F047FABC4BFA
:103A54001B7B012B05D1FDF767F9B44B0B221A70C0
:103A64004BE3FDF755F9B84B01221A70B44B1A79A0
:103A7400B64B1A70AD4B01221A703EE3FEF77AF88A
:103A8400031C002B00D1FEE2AA4BB14A1A80A74BBB
:103A940002221A70F7E2FEF76DF8031C002B00D027
:103AA400F3E29023DB05802212019A61A94B1B7873
:103AB400022B06D10020FDF7E3FDA74B181CFDF7F0
:103AC40077FEA24B1B78322B06D9984B04221A702E
:103AD400984B00221A80D8E2A04B33221A809F4BC5
:103AE4001B88181CFDF7B8F99C4B1B88DBB21A1C09
:103AF4009B4980239B00081C111C1A1C01F079FCB3
:103B04000020FDF705FF974B64221A70894BC822E9
:103B140052001A80854B03221A70B6E2854B1B882B
:103B24009BB2002B00D0B2E2824B01221A80874B59
:103B34001B781A1C894B1B889A422BD0834B1B7809
:103B44001A1C864B1B889A4206D9844B1B88013366
:103B54009AB2824B1A8005E0804B1B88013B9AB2D3
:103B64007E4B1A807D4B1B88DBB21A1C7C49802358
:103B74009B00081C111C1A1C01F03BFC0020FDF7E3
:103B8400C7FE784B64221A70744B1B88181CFDF70F
:103B940063F97CE26F4B1B78022B06D10020FDF702
:103BA4006FFD714B181CFDF703FE604B05221A7064
:103BB4006DE2604B1B889BB2002B00D069E2604B26
:103BC4001B89FF2B06D95E4B1B891B0A9AB2594BE2
:103BD4001A8002E0574B01221A805C4B1B781A1C96
:103BE4005E4B1B889A4224D9554B1B791A1C5B4B9C
:103BF4001B889A421DD9594B1B88181CFDF72CF9B8
:103C0400564B1B88DBB21A1C554980239B00081CA9
:103C1400111C1A1C01F0EDFB0020FDF779FE514B3D
:103C240064221A704D4B1B8801339AB24B4B1A8095
:103C34002FE2484B1B78022B06D10020FDF720FD14
:103C4400494B181CFDF7B4FD384B05221A7020E2CD
:103C5400FDF790FF031C002B00D11CE2354B3C4ABE
:103C64001A80324B06221A7015E2FDF783FF031CFB
:103C7400002B1AD12F4B1B889BB2002B15D0374B2E
:103C84001B88DAB2314B1A70324B1B78022B06D1E7
:103C94000020FDF7F5FC354B181CFDF789FD234B7F
:103CA40007221A70234B01221A80224B1B889BB2D5
:103CB400002B00D0F1E11D4B08221A70EDE11D4BE1
:103CC4001B889BB2002B00D0E9E11D4B1B89FF2B05
:103CD40006D91B4B1B891B0A9AB2164B1A8002E0A9
:103CE400144B01221A801D4B1B88002B40D01B4B08
:103CF4001B88181CFDF7B0F8184B1B88DBB21A1C84
:103D0400174980239B00081C111C1A1C01F071FB2D
:103D14000020FDF7FDFD134B64221A700F4B1B8826
:103D2400013B9AB20D4B1A80B9E1C0469A000020BB
:103D3400E46300082E0300209E0300203075000079
:103D4400040400206C6100089F0000209E000020F5
:103D5400DC0500009B000020045F00089C0000209C
:103D640008010020A4030020185F00082C5F00084D
:103D74000020FDF771F8CD4B1B88DBB21A1CCC492F
:103D840080239B00081C111C1A1C01F032FB00202C
:103D9400FDF7BEFDC74B64221A70C74B01221A708F
:103DA400C64B1B78022B06D10020FDF769FCC44BDF
:103DB400181CFDF7FDFC9023DB05802212059A6197
:103DC4006DE1C04B1B78002B03D1BB4B09221A7049
:103DD40093E1B94B0A221A708FE1BB4B1B889BB24B
:103DE400002B00D05DE1B94B5B89FF2B06D9B74BA3
:103DF4005B891B0A9AB2B44B1A8002E0B24B0122CF
:103E04001A80FDF7B7FE031C002B25D0AF4B1B799E
:103E14001A1CA64B1B889A4200D842E1A34B1B886C
:103E240001339AB2A14B1A80A04B1B88DBB21A1C37
:103E34009F4980239B00081C111C1A1C01F0D9FA0D
:103E44000020FDF765FD9B4B64221A70974B1B887D
:103E5400181CFDF701F824E19C4B1B791A1C934BA9
:103E64001B889A4202D8974B01221A70924B052262
:103E74001A7016E1944B1B889BB2002B00D012E100
:103E8400924B5B89FF2B06D9904B5B891B0A9AB234
:103E94008D4B1A8002E08C4B01221A80FDF76AFEDA
:103EA400031C002B25D0894B9B791A1C7F4B1B8844
:103EB4009A4200D3F7E07D4B1B88013B9AB27B4BBF
:103EC4001A807A4B1B88DBB21A1C794980239B0029
:103ED400081C111C1A1C01F08CFA0020FDF718FDB7
:103EE400744B64221A70714B1B88181CFCF7B4FFC6
:103EF400D9E0764B9B791A1C6C4B1B889A4202D3EF
:103F0400704B00221A706C4B05221A70CBE0704B78
:103F140001221A706D4BDA896E4B1A80FDF7ECFCA6
:103F2400664B1B78022B06D10020FDF7A9FB6A4BD8
:103F3400181CFDF73DFC604B1B780133DAB25E4B75
:103F44001A70DAE0654B1B78DBB2002B0ED0634BA2
:103F540000221A70624B1B78DBB2181CFCF77CFF42
:103F64005F4B1B78DBB21A1C504B1A804F4B1B88DB
:103F74000A2B05D99023DB05802212019A6108E0FF
:103F84004A4B1B88042B04D89023DB05802212059E
:103F94009A614A4B1B78022B00D0ADE0514B1B7841
:103FA4001A1C424B1B889A4200D1A5E03F4B1B8848
:103FB400DAB24C4B1A704B4B1B781A1C07AB6421BA
:103FC4004A431A8007AC07AB1B88181CFF21FCF777
:103FD40077F8031C238007AB1B88642B02D907AB3B
:103FE40064221A804020FDF74BFB4C20FDF748FB70
:103FF40007AB1B8801A93C4A081C111C1A1C01F0C0
:1040040001FA01AB181CFDF7D3FB384B181CFDF764
:10401400CFFB07AC07AB1B88181C0A21FCF750F830
:10402400031C2380324B1B7807AA12889A4263D060
:1040340007AB1B88DAB22E4B1A704020FDF720FB29
:104044002C4B181CFDF7B4FB4020FDF719FB6B4605
:104054001E3300221A7009E0FF20FDF75DFB6B465A
:104064001E336A461E32127801321A706B461E33B2
:104074001B789BB207AA12889A42EDD83CE00E4BFB
:1040840000221A7039E0C04637E0C04635E0C04629
:1040940033E0C04631E0C0462FE0C0462DE0C046C4
:1040A4002BE0C04629E0C04627E0C0469C00002023
:1040B40008010020A40300209A0000209B00002097
:1040C400405F00089F0000202E030020040400200D
:1040D4000200002000000020545F00086E0300204E
:1040E40070030020A1000020685F00086C5F0008D6
:1040F400A2000020705F0008C0467F4B1B78012B94
:104104003CD002DC002B05D0CDE0022B4FD0032B9A
:1041140069D0C8E06C461B3400F006F9031C237018
:104124006B461B331B78042B02D1744B744A1A80E0
:104134006B461B331B78012B08D1704B704A1A80D5
:104144006D4B1B780133DAB26B4B1A706B4B1B88C7
:104154009BB2002B00D0AAE00020FDF791FA694B36
:10416400181CFDF725FB4020FDF78AFA654B181C47
:10417400FDF71EFB604B02221A7098E06C461B345C
:10418400614A624B101C191C01220223FDF74CFEEC
:10419400031C23706B461B331B780A2B00D088E06A
:1041A4005B4B14221A70544B00221A7081E0FDF705
:1041B400F9FC031C002B05D1FDF70EFD031C002B9D
:1041C40000D178E04D4B4E4A1A800020FDF758FA92
:1041D400504B181CFDF7ECFA474B1B780133DAB24D
:1041E400454B1A7067E0FDF7DDFC031C002B00D083
:1041F40063E0FDF7F1FC031C002B5ED13E4B002273
:104204001A70454B1B78082B07D84020FDF738FA65
:10421400424B181CFDF7CCFA4FE03F4B1B780C2B9C
:1042240003D83D4B01221A7036E03B4B1B78122B0E
:1042340003D8394B02221A702EE0374B1B78142B0B
:1042440003D8354B03221A7026E0334B1B78162B08
:1042540003D8314B04221A701EE02F4B1B78182B05
:1042640003D82D4B05221A7016E02B4B1B781A2B02
:1042740003D8294B06221A700EE0274B1B781D2BFE
:1042840003D8254B07221A7006E0234B1B78212BF9
:1042940002D8214B08221A70FEF70AF9FDF7E0FE56
:1042A400FEF722FA09E0144B00221A7006E0C04619
:1042B40004E0C04602E0C04600E0C046FDF772FCE0
:1042C400031C032B03D96B461F3303221A70144BB0
:1042D4001B7B002B0AD1134B1B78DBB2002B05D1BF
:1042E4000020FDF715FB0F4B64221A706B461F3339
:1042F4001B78181C08B010BD9B0000209E030020F2
:104304003075000084610008805F0008945F000835
:104314009A000020A45F0008A0000020B85F0008F5
:1043240004040020A403002010B584B06B460F33AE
:1043340000221A706B460E3300221A706B46093342
:1043440000221A70E54B1B78212B01D900F077FD70
:104354009A00E34BD3181B689F466C460E34E14A1F
:10436400E14B101C191C01220223FDF75DFD031C07
:1043740023706B460E331B780A2B01D000F063FDCB
:10438400D64B07221A7000F05EFD6C460E34D74BF4
:10439400181CFDF76BFE031C23706B460E331B7851
:1043A400022B02D1CD4B08221A706B460E331B78B8
:1043B400012B02D1C94B1B221A706B460E331B789A
:1043C400002B01D100F041FD6B460F3304221A701B
:1043D40000F03BFD6C460E34C54B181CFDF746FE41
:1043E400031C23706B460E331B78022B02D1BB4B8C
:1043F40007221A706B460E331B78012B02D1B74B80
:104404001E221A706B460E331B78002B01D100F06C
:104414001EFD6B460F3304221A7000F018FD6C4623
:104424000E34B44B181CFDF721FE031C23706B469D
:104434000E331B78022B02D1A84B02221A706B4652
:104444000E331B78012B02D1A44B0A221A706B463F
:104454000E331B78002B01D100F0FBFC6B460F33AD
:1044640004221A7000F0F5FC6C460E34A24B181CA2
:10447400FDF7FCFD031C23706B460E331B78022BE7
:1044840002D1964B03221A706B460E331B78012B14
:1044940002D1924B0D221A706B460E331B78002BFF
:1044A40001D100F0D8FC6B460F3304221A7000F0DF
:1044B400D2FC6C460E34914B181CFDF7D7FD031C3F
:1044C40023706B460E331B78022B02D1834B0422DC
:1044D4001A706B460E331B78012B02D17F4B1322CB
:1044E4001A706B460E331B78002B01D100F0B5FC1B
:1044F4006B460F3304221A7000F0AFFC6C460E3486
:104504007F4B181CFDF7B2FD031C23706B460E3362
:104514001B78022B02D1714B05221A706B460E33A5
:104524001B78012B02D16D4B15221A706B460E338A
:104534001B78002B01D100F092FC6B460F33042250
:104544001A7000F08CFC6C460E346E4B181CFDF790
:104554008DFD031C23706B460E331B78022B02D196
:104564005E4B06221A706B460E331B78012B02D168
:104574005A4B17221A706B460E331B78002B01D14D
:1045840000F082FC6B460F3304221A7000F07CFCAE
:104594006C460E345C4B181CFDF768FD031C23703D
:1045A4006B460E331B78022B02D14C4B01221A703E
:1045B4006B460E331B78012B02D1484B19221A701B
:1045C4006B460E331B78002B01D100F05FFC6B4669
:1045D4000F3304221A7000F059FC4C4B1B7B002B48
:1045E40004D16B460E3380221A7003E06B460E33FF
:1045F40081221A704649474A474B68460E30007874
:104604000090081C111C1A1C0323FDF711FE334BE8
:104614001B780133DAB2314B1A7000F052FC6C464D
:104624000E343B493B4A3C4B00200090081C111CB3
:104634001A1C0323FDF7FCFD031C23706B460E3389
:104644001A780F231340012B01D000F021FC6B4694
:104654000E336A460E3212780F218A431A706B4663
:104664000E336A460E32127812091A706B460E33F4
:104674001B78002B09D1254B00221A736B460F338C
:1046840001221A70154B01221A706B460E331B78E7
:10469400012B09D11D4B01221A736B460F330122E2
:1046A4001A700E4B08221A706B460E331B78022BBD
:1046B40001D000F0EDFB6B460F3304221A70074B58
:1046C4001B780133DAB2054B1A700020FCF7D8FFCF
:1046D400124B181CFDF76CF800F0DAFBA000002068
:1046E40038640008CC5F0008E05F0008EC5F000855
:1046F40000600008106000082460000838600008AA
:104704004C60000860600008746000080404002025
:104714008860000884610008E0630008A45F000862
:10472400FDF75AFA031C002B02D1E54B07221A703D
:104734006B460F3304221A7000F0C3FBE14B1B7B62
:10474400012B04D16B460E3380221A7003E06B46B2
:104754000E3381221A70DC49DC4ADD4B68460E3088
:1047640000780090081C111C1A1C0323FDF760FD3F
:10477400D34B1B780133DAB2D14B1A7000F0A1FB92
:104784006C460E34D049D14AD14B00200090081C0D
:10479400111C1A1C0323FDF74BFD031C23706B46ED
:1047A4000E331A780F231340012B00D072E36B46AB
:1047B4000E336A460E3212780F218A431A706B4602
:1047C4000E336A460E32127812091A706B460E3393
:1047D4001B78002B09D1BB4B01221A736B460F3394
:1047E40001221A70B64B21221A706B460E331B78C5
:1047F400012B09D1B34B00221A736B460F330122EC
:104804001A70AF4B07221A706B460E331B78022BBB
:1048140000D03FE36B460F3304221A70A84B1B7879
:104824000133DAB2A64B1A700020FCF729FFA94B1A
:10483400181CFCF7BDFF2DE3FDF7CEF9031C002B7C
:1048440002D19F4B08221A706B460F3304221A7050
:1048540037E36C460E34A04B181C02210122FF23BF
:10486400FDF72CFE031C23706B460E331B780A2BBA
:1048740007D16B460F3301221A70914B08221A702C
:104884000AE36B460E331B78042B00D004E36B461B
:104894000F3304221A70FFE28A4B1B78002B04D0DA
:1048A4006B460E3380221A7003E06B460E3381226E
:1048B4001A708549854A864B68460E300078009008
:1048C400081C111C1A1C0323FDF7B2FC7C4B1B783B
:1048D4000133DAB27A4B1A70F3E26C460E347A4939
:1048E4007A4A7B4B00200090081C111C1A1C0323DD
:1048F400FDF79EFC031C23706B460E331A780F23BE
:104904001340012B00D0C9E26B460E336A460E32C7
:1049140012780F218A431A706B460E336A460E32A0
:10492400127812091A706B460E331B78002B02D1D1
:10493400644B01221A706B460E331B78012B02D193
:10494400604B00221A706B460E331B78022B11D178
:104954006B460F3304221A70594B1B780133DAB2B9
:10496400574B1A700020FCF78BFE5A4B181CFCF7AF
:104974001FFF93E26B460F3301221A70504B012242
:104984001A708BE2FDF728F9031C002B02D14C4B63
:1049940001221A706B460F3304221A7091E2494BBC
:1049A4005B78002B04D06B460E3380221A7003E030
:1049B4006B460E3381221A704349444A444B68467D
:1049C4000E3000780090081C111C1A1C0323FDF7FC
:1049D4002FFC3B4B1B780133DAB2394B1A7070E26F
:1049E4006C460E343849394A394B00200090081C73
:1049F400111C1A1C0323FDF71BFC031C23706B46BC
:104A04000E331A780F231340012B00D048E26B4673
:104A14000E336A460E3212780F218A431A706B469F
:104A24000E336A460E32127812091A706B460E3330
:104A34001B78002B0FD1234B01225A70204B1B787B
:104A44000133DAB21E4B1A700020FCF719FE214B19
:104A5400181CFCF7ADFE6B460E331B78012B09D1F5
:104A6400184B00225A706B460F3301221A70144BF4
:104A740002221A706B460E331B78022B00D00FE211
:104A84006B460F3304221A700D4B11221A7000204A
:104A9400FCF7F6FD0F4B181CFCF78AFE00E2FDF74D
:104AA4009BF8031C002B05D1054B1B780133DAB2AC
:104AB400034B1A706B460F3304221A7001E2C0468E
:104AC400A00000200404002088600008846100081D
:104AD400E0630008A45F0008120400206C460E3452
:104AE400E04B181C002100226423FDF7E7FC031CA3
:104AF40023706B460E331B780A2B03D1DA4B122238
:104B04001A70CFE16B460E331B78042B00D0C9E139
:104B14006B460F3304221A70C4E1FDF75DF8031CE1
:104B2400002B02D1D04B02221A706B460F330422A1
:104B34001A70C6E16B460F3304221A70FDF74CF865
:104B4400031C002B00D0AFE1C74B02221A706B4646
:104B54000F3301221A70A7E16C460E34C34B181CA4
:104B6400002100226423FDF7A9FC031C23706B467B
:104B74000E331B780A2B1FD1BD4BDB7803AA191CFB
:104B84000902CB1A138003AC03AB1B88181C6421E5
:104B9400FBF796FA031C238003AB1B88DAB2B44BF1
:104BA4001A71B14B14221A700020FCF769FDB14B45
:104BB400181CFCF7FDFD79E16B460E331B78042BC2
:104BC40000D073E16B460F3304221A706EE16B461A
:104BD4000F3304221A70FCF7FFFF031C002B00D0D4
:104BE40066E1A34B1B791A1CA34B1B889A421BD268
:104BF4009F4B1B791A1CA04B1A809F4B1B88DBB25E
:104C04001A1C9E4980239B00081C111C1A1C00F0CE
:104C1400F0FB0020FCF77CFE974B1B88181CFCF76C
:104C24001BF9974B01221A708F4B03221A706B46A3
:104C34000F3301221A703BE16C460E34914B181C61
:104C4400002100226423FDF739FC031C23706B460A
:104C54000E331B780A2B23D1854B5B796A460A32C3
:104C6400191C0902CB1A13806C460A346B460A33AA
:104C74001B88181C6421FBF723FA031C23806B4652
:104C84000A331B88DAB27A4B9A71774B16221A7060
:104C94000020FCF7F5FC774B181CFCF789FD09E1B3
:104CA4006B460E331B78042B00D003E16B460F33A5
:104CB40004221A70FEE06B460F3304221A70FCF7CC
:104CC4008BFF031C002B00D0F6E0694B9B791A1C68
:104CD400694B1B889A421BD9654B9B791A1C664BFE
:104CE4001A80654B1B88DBB21A1C644980239B0025
:104CF400081C111C1A1C00F07CFB0020FCF708FEA9
:104D04005D4B1B88181CFCF7A7F85D4B00221A703A
:104D1400554B04221A706B460F3301221A70CBE0F4
:104D2400534B1B89181CFA239900FBF7C9F9031C80
:104D34009BB2DAB26B4609331A706C460E346B467A
:104D44000933181C012100220A23FDF7B7FB031CB9
:104D540023706B460E331B780A2B12D16B46093332
:104D64001B78FA22920053439AB2414B1A813E4B6C
:104D740018221A700020FCF783FC3E4B181CFCF729
:104D840017FD6B460F3304221A709AE06B460F33FB
:104D940004221A70FCF720FF031C002B00D08DE0C6
:104DA400314B05221A706B460F3301221A7085E0CD
:104DB4002F4B5B89181CFA239900FBF781F9031C1C
:104DC4009BB2DAB26B4609331A706C460E346B46EA
:104DD4000933181C012100220A23FDF76FFB031C71
:104DE40023706B460E331B780A2B12D16B460933A2
:104DF4001B78FA22920053439AB21D4B5A811A4BE4
:104E04001A221A700020FCF73BFC1A4B181CFCF702
:104E1400CFFC6B460F3304221A7052E06B460F33FB
:104E240004221A70FCF7D8FE031C002B48D10E4B49
:104E340006221A706B460F3301221A7040E00A4BA7
:104E440000221A703DE0C0463BE0C04639E0C0464F
:104E540037E0C04635E0C04633E0C04631E0C046E6
:104E64002FE0C04606040020A00000200704002014
:104E740004040020A45F00089C0000200801002016
:104E84009F00002009040020C0461AE0C04618E034
:104E9400C04616E0C04614E0C04612E0C04610E02A
:104EA400C0460EE0C0460CE0C0460AE0C04608E03A
:104EB400C04606E0C04604E0C04602E0C04600E04A
:104EC400C0466B460F331B78181C04B010BDC04697
:104ED400014B00221A7070479A000020014B0022F7
:104EE4001A707047A000002010B58AB0021C6B46EF
:104EF40007331A706B46273300221A706B4623332C
:104F040000221A706B4607331B780B2B03D1CE4B50
:104F140000221A8007E06B4607331B780C2B02D162
:104F2400C94BCA4A1A80CA4B1B78012B57D002DCE2
:104F3400002B05D0F0E0022B1CD0142B37D0EBE073
:104F4400C44AC54B111C1A1C0423081C111C1A1C2E
:104F540000F046FABC4B1B889BB2002B06D1BF4B1A
:104F640002221A70BA4B02221A70DCE0B84B1422E7
:104F74001A70D8E0B94B1B78022B00D0D0E0002087
:104F8400FCF77EFBB64B181CFCF712FC4020FCF728
:104F940077FBB04B1B8803A9B24A081C111C1A1CCE
:104FA40000F030FA03AB181CFCF702FCB8E0FBF786
:104FB400BBFEAD4B01221A70A64B1A88AB4B1A806C
:104FC400A64B1B78022B06D10020FCF759FBA44BFF
:104FD400181CFCF7EDFB9E4B01221A70A3E0A44BB6
:104FE4001B78DBB2002B0ED0A14B00221A70A14B10
:104FF4001B78DBB2181CFBF72FFF9E4B1B78DBB230
:105004001A1C9D4B1A809C4B1B880A2B05D9902394
:10501400DB05802212019A6108E0974B1B88042B60
:1050240004D89023DB05802212059A618B4B1B78F0
:10503400022B00D076E0914B1B781A1C8E4B1B88F8
:105044009A4200D16EE08C4B1B88DAB28B4B1A70FB
:105054008A4B1B781A1C09AB64214A431A8009AC99
:1050640009AB1B88181CFF21FBF72AF8031C2380BB
:1050740009AB1B88642B02D909AB64221A80402037
:10508400FCF7FEFA4C20FCF7FBFA09AB1B8803A9DA
:105094007B4A081C111C1A1C00F0B4F903AB181C41
:1050A400FCF786FB774B181CFCF782FB09AC09ABB9
:1050B4001B88181C0A21FBF703F8031C2380724B7E
:1050C4001B7809AA12889A422CD009AB1B88DAB241
:1050D4006D4B1A704020FCF7D3FA6C4B181CFCF78C
:1050E40067FB4020FCF7CCFA6B46263300221A708B
:1050F40009E0FF20FCF710FB6B4626336A46263294
:10510400127801321A706B4626331B789BB209AAB7
:1051140012889A42EDD805E04D4B00221A7002E045
:10512400C04600E0C0464D4B1B78012B3AD002DC50
:10513400002B05D082E0022B4DD0032B6DD07DE0F7
:105144006C46233400F0C4F8031C23706B462333ED
:105154001B78042B02D13C4B3C4A1A806B46233308
:105164001B78012B05D1384B384A1A803B4B01225E
:105174001A70354B1B889BB2002B63D10020FCF7BF
:105184007FFA344B1B8803A9414A081C111C1A1CC2
:1051940000F038F903AB181CFCF70AFB2F4B022272
:1051A4001A704FE06C4623343A4A3B4B101C191CCE
:1051B40001220223FCF738FE031C23706B462333C1
:1051C4001B780A2B00D06FE0214B14221A70234B5A
:1051D40000221A7068E0FCF7E5FC031C002B04D1E4
:1051E400FCF7FAFC031C002B60D0174B174A1A80FB
:1051F4000020FCF745FA294B181CFCF7D9FA40208B
:10520400FCF73EFA264B181CFCF7D2FA134B1B781A
:105214000133DAB2114B1A7048E0FCF7C3FC031CEB
:10522400002B45D1FCF7D8FC031C002B40D10B4BC1
:1052340000221A701B4B00221A7039E0074B00221F
:105244001A7036E0C04634E09E030020307500003A
:10525400A30000201804002080610008A40000209E
:105264009C600008B06000080200002000000020DC
:105274006E03002070030020A6000020A900002077
:10528400C0600008C4600008AA000020C8600008CC
:10529400D8600008EC600008006100081061000894
:1052A40084610008A8000020C04602E0C04600E077
:1052B400C046FCF777FC031C032B03D96B4627334A
:1052C40003221A706B4627331B78181C0AB010BDD2
:1052D40010B582B06B46073300221A706B46063352
:1052E40000221A706B46053300221A70364B1B7865
:1052F400012B1DD002DC002B05D056E0022B2CD054
:10530400032B30D051E06C460634304A304B101C2D
:10531400191C01220223FCF787FD031C23706B4632
:1053240006331B780A2B44D1274B01221A7040E024
:105334006C460634274A284B101C191C01220223F0
:10534400FCF772FD031C23706B4606331B780A2B93
:1053540031D11D4B02221A702DE0FDF7C5F91A4B0D
:1053640003221A702AE06C4606341C4B181C0221D6
:105374000122FF23FDF7A2F8031C23706B460633BA
:105384001B780A2B07D16B46073301221A700E4B88
:1053940000221A7011E06B4606331B78042B0CD1E3
:1053A4006B46073304221A7007E0074B00221A7079
:1053B40004E0C04602E0C04600E0C0466B46073346
:1053C4001B78181C02B010BDA8000020246100083E
:1053D400386100084861000884610008180400204E
:1053E40010B50023934203D0CC5CC4540133F9E7D5
:1053F40010BD8218031C934202D019700133FAE7DE
:10540400704700000EB400B59CB01DAB02A904CBDC
:10541400822202900861920009488A8101228860F0
:1054240048615042074AC88110681D9A019300F0F0
:105434006BF8029900230B701CB008BC03B018472A
:10544400FFFFFF7F680000200023C25C0133002AB5
:10545400FBD1581E70470000F7B501919168071CF5
:10546400141C002940D190239289D80002423BD0D9
:105474002568216963696E1A58000096C618009859
:10548400F50FAB1901305D10A84201DB009D023518
:10549400381C53050FD5291C00F004FB061E13D03D
:1054A4002169009AFFF79CFFA78916498022394099
:1054B4001143A18111E02A1C00F049FB061E0CD106
:1054C400381C216900F0A6FA0C203860A589402612
:1054D4003543A5810124604213E0009B6561F01807
:1054E400ED1A26612060A560A668002E08DD6946D5
:1054F40027680A793A70A3680137013B2760A360E3
:105504000020FEBD7FFBFFFFF0B5A1B00490079320
:105514008B890E1C171C19060FD53269002A0CD171
:10552400402100F0BFFA30603061002803D1049CB0
:105534000C262660D6E04020706108AD00212024AE
:10554400302369616C76AB763C1C2278002A04D146
:10555400E01B069019D003970FE0252AF8D00134F8
:10556400F3E70399321C09780498FFF775FF039A4F
:1055740001320392013000D1AFE003990698CB1BAE
:105584008342EEDB0D9F3A180D922178002900D159
:10559400A3E001206A4600234742633201342B60B2
:1055A400EB606F60AB601370AB65504F2178381CB3
:1055B400052200F0C1FA002807D0C71B2B68012080
:1055C400B840184328600134EFE72B68D90603D5A7
:1055D40068462021633001701A0703D56A462B27D9
:1055E4006332177021782A2901D00B9B0EE0079AA9
:1055F4001068111D0791002801DB0B9004E00222C2
:1056040047421343EF602B60013409E020783038BF
:10561400092804D80A277B4301341B18F6E70B93A7
:1056240023782E2B18D161782A2909D1079B0234BB
:105634001A68191D0791002A0DDA012042420AE076
:105644000134002220783038092804D80A277A4304
:1056540001341218F6E70992254F2178381C0322E9
:1056640000F06AFA002806D02B68C21B4021914042
:1056740019432960013421781E4806222976671CC3
:1056840000F05AFA002817D01B4800280BD12868CC
:10569400079C0723C10501D5E41800E007349C43A7
:1056A4000834079414E007AA00920498291C321CB9
:1056B400124B00E000BF07E007AC00940498291CDB
:1056C400321C0E4B00F08CF8059005994A1C04D04E
:1056D4000D99059A8C180D9436E7B589690601D49D
:1056E4000D9801E00127784221B0F0BDC0640008A4
:1056F400C6640008CA640008000000005D54000885
:10570400F7B5151C01930A698B6800900C1C934231
:1057140000DA131C201C2B6043300178002901D0CF
:1057240001332B602668B00602D52F6802372F603C
:105734002268062616401CD0261C43363778226879
:105744003E1C731E9E4192061CD5A319181C4030A2
:105754003021271CC17045373A784133DA7002365C
:1057640010E0617E0098019A089FB847013006D086
:105774000136E3682868191A8E42F2DBDCE701205F
:1057840040422CE00027B7420ADAE1194331097894
:105794000098019A089B98470130F0D00137F2E74E
:1057A4002B68256806212940E6680025042903D1D1
:1057B400F01AC743FD170540A2682669B24201DD0D
:1057C400931BED180027AF4208DAA17E0098019AD6
:1057D400089EB0470130D2D00137F4E70020FEBD67
:1057E400F0B50D1C8BB043350793059006920495D4
:1057F4000A7E0C1C109B6E2A00D1A8E012D8632AE2
:1058040024D009D8002A00D1B1E0582A00D0C1E040
:1058140045310A707D4D51E0642A1FD0692A00D0B9
:10582400B8E01BE0732A00D1A5E009D86F2A2BD079
:10583400702A00D0AEE00A68202616430E6038E0D5
:10584400752A21D0782A00D0A4E032E018680E1C12
:10585400051D1D600368423633709EE026681F688C
:10586400300606D4750604D5381D186000203D5E48
:1058740002E03D1D1D603D68644B002D3BDA049938
:105884002D226D420A7036E027681E683D0605D455
:10589400780603D5351D1D60358802E0311D196079
:1058A40035685A4B207E039308276F281ED00A2799
:1058B4001CE0271C45377820554D38701A68266837
:1058C400111D03951960300603D4750601D515889A
:1058D40000E01568F00702D520231E432660102738
:1058E400002D03D12668202086432660261C4336DB
:1058F4000022327001E003930A276168A160002945
:1059040003DB2068042398432060002D02D1049E09
:1059140000290ED0049E281C391CFAF715FC039AA2
:10592400013E515C281C3170391CFAF7C9FB051E75
:10593400F1D1049B9A1B2261082F33D12768F80701
:1059440030D5606890422DDC013262602AE008683C
:105954001E684969050606D4450604D5351D1D6033
:105964003368198003E0321D1A60376839600020FB
:105974002061049E16E01E68311D19603668301CD3
:10598400FFF762FD65682061A84200D9256123699B
:10599400636004E0261C4236327001212161049FB9
:1059A40000223A7007990598009109AA211C069BC8
:1059B400FFF7A6FE01300CD0351C2269AB1B9342C5
:1059C4000ADA29780598069A079FB8470135013005
:1059D400F3D10122504217E02668B10705D4099B90
:1059E400E068984210DA181C0EE00025E768099870
:1059F400391A8D42F3DA617E0598069A079EB047FC
:105A04000130E6D00135F1E70BB0F0BDD1640008F8
:105A1400E264000830B5002940D004390B68002B3B
:105A240000DAC9181E4A1368141C002B02D14B60FB
:105A3400116033E099420FD20D684A199A4205D198
:105A440010682B1855680B604D6000E04B602160B6
:105A540024E08A4203D8131C5A68002AF9D11D682D
:105A64005C198C420BD10C682D1958191D60904299
:105A740014D1116852686C181C605A600EE08C4294
:105A840002D90C21016009E008680D18954203D180
:105A940014685268001908604A60596030BDC046F5
:105AA400AC00002070B50323CD1C9D430835061CB3
:105AB4000C2D01D20C2501E0002D2DDB8D422BD3C2
:105AC4001C4A1368111C1C1C002C12D02068421B99
